{
  "_format": "hh-sol-artifact-1",
  "contractName": "ADealCreation",
  "sourceName": "contracts/ADealCreation.sol",
  "abi": [
    {
      "anonymous": false,
      "inputs": [
        {
          "indexed": false,
          "internalType": "uint256",
          "name": "basketId",
          "type": "uint256"
        },
        {
          "indexed": false,
          "internalType": "address payable",
          "name": "owner",
          "type": "address"
        }
      ],
      "name": "BasketActivated",
      "type": "event"
    },
    {
      "anonymous": false,
      "inputs": [
        {
          "indexed": false,
          "internalType": "uint256",
          "name": "basketId",
          "type": "uint256"
        },
        {
          "indexed": false,
          "internalType": "address payable",
          "name": "owner",
          "type": "address"
        }
      ],
      "name": "BasketCreated",
      "type": "event"
    },
    {
      "anonymous": false,
      "inputs": [
        {
          "indexed": false,
          "internalType": "uint256",
          "name": "basketId",
          "type": "uint256"
        },
        {
          "indexed": false,
          "internalType": "address payable",
          "name": "owner",
          "type": "address"
        }
      ],
      "name": "BasketDeactivated",
      "type": "event"
    },
    {
      "anonymous": false,
      "inputs": [
        {
          "indexed": false,
          "internalType": "uint256",
          "name": "basketIdOfferAccepted",
          "type": "uint256"
        },
        {
          "indexed": false,
          "internalType": "uint256",
          "name": "basketIdAcceptor",
          "type": "uint256"
        },
        {
          "indexed": false,
          "internalType": "uint256",
          "name": "tfuelSenttoOfferee",
          "type": "uint256"
        },
        {
          "indexed": false,
          "internalType": "uint256",
          "name": "tfuelSenttoAcceptee",
          "type": "uint256"
        },
        {
          "indexed": false,
          "internalType": "uint256",
          "name": "nftsSentToOfferee",
          "type": "uint256"
        },
        {
          "indexed": false,
          "internalType": "uint256",
          "name": "nftsSentToAcceptee",
          "type": "uint256"
        }
      ],
      "name": "BasketOfferAccepted",
      "type": "event"
    },
    {
      "anonymous": false,
      "inputs": [
        {
          "indexed": false,
          "internalType": "uint256",
          "name": "basketId",
          "type": "uint256"
        },
        {
          "indexed": false,
          "internalType": "address payable",
          "name": "owner",
          "type": "address"
        }
      ],
      "name": "BasketRemoved",
      "type": "event"
    },
    {
      "anonymous": false,
      "inputs": [
        {
          "indexed": false,
          "internalType": "address",
          "name": "addressLogged",
          "type": "address"
        }
      ],
      "name": "LogAddress",
      "type": "event"
    },
    {
      "anonymous": false,
      "inputs": [
        {
          "indexed": false,
          "internalType": "bytes",
          "name": "dataLogged",
          "type": "bytes"
        }
      ],
      "name": "LogBytes",
      "type": "event"
    },
    {
      "anonymous": false,
      "inputs": [
        {
          "indexed": false,
          "internalType": "string",
          "name": "itemLogged",
          "type": "string"
        }
      ],
      "name": "LogItem",
      "type": "event"
    },
    {
      "anonymous": false,
      "inputs": [
        {
          "indexed": false,
          "internalType": "uint256",
          "name": "basketId",
          "type": "uint256"
        },
        {
          "indexed": false,
          "internalType": "address",
          "name": "nft",
          "type": "address"
        },
        {
          "indexed": false,
          "internalType": "uint256",
          "name": "tokenId",
          "type": "uint256"
        },
        {
          "indexed": false,
          "internalType": "address",
          "name": "adder",
          "type": "address"
        }
      ],
      "name": "NftAdded",
      "type": "event"
    },
    {
      "anonymous": false,
      "inputs": [
        {
          "indexed": false,
          "internalType": "uint256",
          "name": "basketId",
          "type": "uint256"
        },
        {
          "indexed": false,
          "internalType": "address",
          "name": "nft",
          "type": "address"
        },
        {
          "indexed": false,
          "internalType": "uint256",
          "name": "tokenId",
          "type": "uint256"
        },
        {
          "indexed": false,
          "internalType": "address",
          "name": "adder",
          "type": "address"
        }
      ],
      "name": "NftRemoved",
      "type": "event"
    },
    {
      "anonymous": false,
      "inputs": [
        {
          "indexed": false,
          "internalType": "uint256",
          "name": "basketIdOffered",
          "type": "uint256"
        },
        {
          "indexed": false,
          "internalType": "uint256",
          "name": "basketIdOfferedOn",
          "type": "uint256"
        }
      ],
      "name": "OfferAdded",
      "type": "event"
    },
    {
      "anonymous": false,
      "inputs": [
        {
          "indexed": false,
          "internalType": "uint256",
          "name": "basketIdOffered",
          "type": "uint256"
        },
        {
          "indexed": false,
          "internalType": "uint256",
          "name": "basketIdOfferedOn",
          "type": "uint256"
        }
      ],
      "name": "OfferRemoved",
      "type": "event"
    },
    {
      "anonymous": false,
      "inputs": [
        {
          "indexed": false,
          "internalType": "uint256",
          "name": "tfuelAdded",
          "type": "uint256"
        },
        {
          "indexed": false,
          "internalType": "uint256",
          "name": "totalTfuelInBasket",
          "type": "uint256"
        },
        {
          "indexed": false,
          "internalType": "uint256",
          "name": "basketId",
          "type": "uint256"
        }
      ],
      "name": "TfuelAddedToBasket",
      "type": "event"
    },
    {
      "anonymous": false,
      "inputs": [
        {
          "indexed": false,
          "internalType": "uint256",
          "name": "tfuelRemoved",
          "type": "uint256"
        },
        {
          "indexed": false,
          "internalType": "uint256",
          "name": "totalTfuelInBasket",
          "type": "uint256"
        },
        {
          "indexed": false,
          "internalType": "uint256",
          "name": "basketId",
          "type": "uint256"
        }
      ],
      "name": "TfuelRemovedFromBasket",
      "type": "event"
    },
    {
      "inputs": [
        {
          "internalType": "uint256",
          "name": "basketIdAccepted",
          "type": "uint256"
        },
        {
          "internalType": "uint256",
          "name": "basketIdOfferOn",
          "type": "uint256"
        }
      ],
      "name": "acceptBasketOffer",
      "outputs": [],
      "stateMutability": "payable",
      "type": "function"
    },
    {
      "inputs": [
        {
          "internalType": "address",
          "name": "nftAddress",
          "type": "address"
        },
        {
          "internalType": "uint256",
          "name": "tokenId",
          "type": "uint256"
        },
        {
          "internalType": "uint256",
          "name": "basketId",
          "type": "uint256"
        }
      ],
      "name": "addNFT",
      "outputs": [],
      "stateMutability": "nonpayable",
      "type": "function"
    },
    {
      "inputs": [
        {
          "internalType": "uint256",
          "name": "basketIdToAddTo",
          "type": "uint256"
        }
      ],
      "name": "addTfuelToBasket",
      "outputs": [],
      "stateMutability": "payable",
      "type": "function"
    },
    {
      "inputs": [
        {
          "internalType": "bool",
          "name": "isActive",
          "type": "bool"
        }
      ],
      "name": "createBasket",
      "outputs": [],
      "stateMutability": "nonpayable",
      "type": "function"
    },
    {
      "inputs": [
        {
          "internalType": "uint256",
          "name": "basketIdOffer",
          "type": "uint256"
        },
        {
          "internalType": "uint256",
          "name": "basketIdOfferOn",
          "type": "uint256"
        }
      ],
      "name": "offerBasket",
      "outputs": [],
      "stateMutability": "nonpayable",
      "type": "function"
    },
    {
      "inputs": [
        {
          "internalType": "uint256",
          "name": "basketId",
          "type": "uint256"
        }
      ],
      "name": "removeBasket",
      "outputs": [],
      "stateMutability": "payable",
      "type": "function"
    },
    {
      "inputs": [
        {
          "internalType": "address",
          "name": "nftAddress",
          "type": "address"
        },
        {
          "internalType": "uint256",
          "name": "tokenId",
          "type": "uint256"
        },
        {
          "internalType": "uint256",
          "name": "basketId",
          "type": "uint256"
        }
      ],
      "name": "removeNFT",
      "outputs": [],
      "stateMutability": "nonpayable",
      "type": "function"
    },
    {
      "inputs": [
        {
          "internalType": "uint256",
          "name": "basketIdOffer",
          "type": "uint256"
        },
        {
          "internalType": "uint256",
          "name": "basketIdOfferOn",
          "type": "uint256"
        }
      ],
      "name": "removeOfferBasket",
      "outputs": [],
      "stateMutability": "nonpayable",
      "type": "function"
    },
    {
      "inputs": [
        {
          "internalType": "uint256",
          "name": "basketIdToRemoveFrom",
          "type": "uint256"
        },
        {
          "internalType": "uint256",
          "name": "tfuelToRemove",
          "type": "uint256"
        }
      ],
      "name": "removeTfuelFromBasket",
      "outputs": [],
      "stateMutability": "payable",
      "type": "function"
    },
    {
      "inputs": [
        {
          "internalType": "uint256",
          "name": "basketId",
          "type": "uint256"
        }
      ],
      "name": "setBasketActive",
      "outputs": [],
      "stateMutability": "nonpayable",
      "type": "function"
    },
    {
      "inputs": [
        {
          "internalType": "uint256",
          "name": "basketId",
          "type": "uint256"
        }
      ],
      "name": "setBasketInactive",
      "outputs": [],
      "stateMutability": "nonpayable",
      "type": "function"
    }
  ],
  "bytecode": "0x608060405234801561001057600080fd5b506001600081905550613268806100286000396000f3fe6080604052600436106100a75760003560e01c80635cdd8320116100645780635cdd8320146101a957806369924398146101d2578063948c1cea146101fb5780639659ed8a14610217578063e02c54cb14610233578063ef3d11581461024f576100a7565b8063059a7bd5146100ac57806308cfdc37146100c8578063150b7a02146100f157806341a47bbf1461012e578063474c34bf14610157578063562abac714610180575b600080fd5b6100c660048036038101906100c191906121b2565b610278565b005b3480156100d457600080fd5b506100ef60048036038101906100ea919061223d565b610615565b005b3480156100fd57600080fd5b50610118600480360381019061011391906122f5565b6109ae565b60405161012591906123b8565b60405180910390f35b34801561013a57600080fd5b50610155600480360381019061015091906123d3565b6109c3565b005b34801561016357600080fd5b5061017e600480360381019061017991906121b2565b610b9a565b005b34801561018c57600080fd5b506101a760048036038101906101a291906123d3565b610ca9565b005b3480156101b557600080fd5b506101d060048036038101906101cb919061244b565b610f5f565b005b3480156101de57600080fd5b506101f960048036038101906101f4919061223d565b6110bd565b005b610215600480360381019061021091906123d3565b6113a4565b005b610231600480360381019061022c91906123d3565b6115e0565b005b61024d600480360381019061024891906121b2565b611df6565b005b34801561025b57600080fd5b50610276600480360381019061027191906121b2565b611f2b565b005b61028061203a565b3373ffffffffffffffffffffffffffffffffffffffff166002600083815260200190815260200160002060010160009054906101000a900473ffffffffffffffffffffffffffffffffffffffff1673ffffffffffffffffffffffffffffffffffffffff16148061031b57503073ffffffffffffffffffffffffffffffffffffffff163373ffffffffffffffffffffffffffffffffffffffff16145b61035a576040517f08c379a0000000000000000000000000000000000000000000000000000000008152600401610351906124fb565b60405180910390fd5b600060026000838152602001908152602001600020600301905060006002600084815260200190815260200160002060040154905060006002600085815260200190815260200160002060020154905060005b828160ff1611610489578360008260ff16815260200190815260200160002060000160009054906101000a900473ffffffffffffffffffffffffffffffffffffffff1673ffffffffffffffffffffffffffffffffffffffff166342842e0e30338760008660ff168152602001908152602001600020600101546040518463ffffffff1660e01b815260040161044493929190612539565b600060405180830381600087803b15801561045e57600080fd5b505af1158015610472573d6000803e3d6000fd5b505050508080610481906125ac565b9150506103ad565b5060008111156105415760003373ffffffffffffffffffffffffffffffffffffffff16826040516104b990612606565b60006040518083038185875af1925050503d80600081146104f6576040519150601f19603f3d011682016040523d82523d6000602084013e6104fb565b606091505b505090508061053f576040517f08c379a000000000000000000000000000000000000000000000000000000000815260040161053690612667565b60405180910390fd5b505b600260008581526020019081526020016000206000808201600090556001820160006101000a81549073ffffffffffffffffffffffffffffffffffffffff02191690556001820160146101000a81549060ff02191690556001820160156101000a81549060ff0219169055600282016000905560048201600090556005820160006105cc91906120b7565b50507ffe02fb84b454715e7c80f29a53256eafffca283821de5679dea8cd8f85cfb01084336040516105ff9291906126a8565b60405180910390a1505050610612612089565b50565b3373ffffffffffffffffffffffffffffffffffffffff166002600083815260200190815260200160002060010160009054906101000a900473ffffffffffffffffffffffffffffffffffffffff1673ffffffffffffffffffffffffffffffffffffffff16146106b9576040517f08c379a00000000000000000000000000000000000000000000000000000000081526004016106b09061271d565b60405180910390fd5b6000806002600084815260200190815260200160002060040154905060005b8181116107aa57846002600086815260200190815260200160002060030160008381526020019081526020016000206001015414801561078d57508573ffffffffffffffffffffffffffffffffffffffff1660026000868152602001908152602001600020600301600083815260200190815260200160002060000160009054906101000a900473ffffffffffffffffffffffffffffffffffffffff1673ffffffffffffffffffffffffffffffffffffffff16145b1561079757600192505b80806107a29061273d565b9150506106d8565b5081156107ec576040517f08c379a00000000000000000000000000000000000000000000000000000000081526004016107e3906127f7565b60405180910390fd5b6002600084815260200190815260200160002060040160008154809291906108139061273d565b919050555060006002600085815260200190815260200160002060040154905061083b6120d8565b86816000019073ffffffffffffffffffffffffffffffffffffffff16908173ffffffffffffffffffffffffffffffffffffffff1681525050858160200181815250508060026000878152602001908152602001600020600301600084815260200190815260200160002060008201518160000160006101000a81548173ffffffffffffffffffffffffffffffffffffffff021916908373ffffffffffffffffffffffffffffffffffffffff160217905550602082015181600101559050508673ffffffffffffffffffffffffffffffffffffffff166342842e0e3330896040518463ffffffff1660e01b815260040161093693929190612539565b600060405180830381600087803b15801561095057600080fd5b505af1158015610964573d6000803e3d6000fd5b505050507f5bc25cf9bf706328a8e5ce2a89e03577ca3100ebc05f793fcaee59e4c30b11ff8588883360405161099d9493929190612817565b60405180910390a150505050505050565b600063150b7a0260e01b905095945050505050565b3373ffffffffffffffffffffffffffffffffffffffff166002600084815260200190815260200160002060010160009054906101000a900473ffffffffffffffffffffffffffffffffffffffff1673ffffffffffffffffffffffffffffffffffffffff1614610a67576040517f08c379a0000000000000000000000000000000000000000000000000000000008152600401610a5e906128ce565b60405180910390fd5b6000805b6002600084815260200190815260200160002060050180549050811015610add5783600260008581526020019081526020016000206005018281548110610ab557610ab46128ee565b5b906000526020600020015403610aca57600191505b8080610ad59061273d565b915050610a6b565b508015610b1f576040517f08c379a0000000000000000000000000000000000000000000000000000000008152600401610b169061298f565b60405180910390fd5b600260008381526020019081526020016000206005018390806001815401808255809150506001900390600052602060002001600090919091909150557ff93f67bd8bf3d3a7f768c599737c96727127c84e4f523f9739c7aff4286d80488383604051610b8d9291906129af565b60405180910390a1505050565b3373ffffffffffffffffffffffffffffffffffffffff166002600083815260200190815260200160002060010160009054906101000a900473ffffffffffffffffffffffffffffffffffffffff1673ffffffffffffffffffffffffffffffffffffffff1614610c3e576040517f08c379a0000000000000000000000000000000000000000000000000000000008152600401610c3590612a4a565b60405180910390fd5b60006002600083815260200190815260200160002060010160146101000a81548160ff0219169083151502179055507ff6106db47764ec08d157c836f33e5481320aadbf838172226d991d55b7a888558133604051610c9e9291906126a8565b60405180910390a150565b3373ffffffffffffffffffffffffffffffffffffffff166002600084815260200190815260200160002060010160009054906101000a900473ffffffffffffffffffffffffffffffffffffffff1673ffffffffffffffffffffffffffffffffffffffff161480610d4457503073ffffffffffffffffffffffffffffffffffffffff163373ffffffffffffffffffffffffffffffffffffffff16145b610d83576040517f08c379a0000000000000000000000000000000000000000000000000000000008152600401610d7a90612adc565b60405180910390fd5b60008080600090505b6002600085815260200190815260200160002060050180549050811015610e015784600260008681526020019081526020016000206005018281548110610dd657610dd56128ee565b5b906000526020600020015403610dee57600192508091505b8080610df99061273d565b915050610d8c565b5081610e42576040517f08c379a0000000000000000000000000000000000000000000000000000000008152600401610e3990612b48565b60405180910390fd5b600060016002600086815260200190815260200160002060050180549050610e6a9190612b68565b9050808214610ee3576000600260008681526020019081526020016000206005018281548110610e9d57610e9c6128ee565b5b9060005260206000200154905080600260008781526020019081526020016000206005018481548110610ed357610ed26128ee565b5b9060005260206000200181905550505b60026000858152602001908152602001600020600501805480610f0957610f08612b9c565b5b600190038181906000526020600020016000905590557f6670de5cfd0abee18ae6fa772aa484bb0d21c76f0ef98efdcf7d623d5ecbb1be8585604051610f509291906129af565b60405180910390a15050505050565b610f696001612093565b6000610f7560016120a9565b90506000600260008381526020019081526020016000209050818160000181905550338160010160006101000a81548173ffffffffffffffffffffffffffffffffffffffff021916908373ffffffffffffffffffffffffffffffffffffffff160217905550828160010160146101000a81548160ff02191690831515021790555060008160010160156101000a81548160ff02191690831515021790555060008160020181905550600067ffffffffffffffff81111561103857611037612bcb565b5b6040519080825280602002602001820160405280156110665781602001602082028036833780820191505090505b5081600501908051906020019061107e929190612108565b507f268195a23eea9fbc45235c585224597ad351d1b0889e31984113ee3e734756d582336040516110b09291906126a8565b60405180910390a1505050565b3373ffffffffffffffffffffffffffffffffffffffff166002600083815260200190815260200160002060010160009054906101000a900473ffffffffffffffffffffffffffffffffffffffff1673ffffffffffffffffffffffffffffffffffffffff1614611161576040517f08c379a000000000000000000000000000000000000000000000000000000000815260040161115890612c6c565b60405180910390fd5b600080806002600085815260200190815260200160002060040154905060005b81811161125657856002600087815260200190815260200160002060030160008381526020019081526020016000206001015414801561123657508673ffffffffffffffffffffffffffffffffffffffff1660026000878152602001908152602001600020600301600083815260200190815260200160002060000160009054906101000a900473ffffffffffffffffffffffffffffffffffffffff1673ffffffffffffffffffffffffffffffffffffffff16145b1561124357600193508092505b808061124e9061273d565b915050611181565b5082611297576040517f08c379a000000000000000000000000000000000000000000000000000000000815260040161128e90612cfe565b60405180910390fd5b600260008581526020019081526020016000206003016000838152602001908152602001600020600080820160006101000a81549073ffffffffffffffffffffffffffffffffffffffff0219169055600182016000905550508573ffffffffffffffffffffffffffffffffffffffff166342842e0e3033886040518463ffffffff1660e01b815260040161132d93929190612539565b600060405180830381600087803b15801561134757600080fd5b505af115801561135b573d6000803e3d6000fd5b505050507f37e4336a3682fb2ccb6058328b4ae5b7ced2bcbea9c59b325cbfb44b8ebf26e4848787336040516113949493929190612817565b60405180910390a1505050505050565b6113ac61203a565b3373ffffffffffffffffffffffffffffffffffffffff166002600084815260200190815260200160002060010160009054906101000a900473ffffffffffffffffffffffffffffffffffffffff1673ffffffffffffffffffffffffffffffffffffffff1614611450576040517f08c379a000000000000000000000000000000000000000000000000000000000815260040161144790612d90565b60405180910390fd5b80600260008481526020019081526020016000206002015410156114a9576040517f08c379a00000000000000000000000000000000000000000000000000000000081526004016114a090612e48565b60405180910390fd5b806002600084815260200190815260200160002060020160008282546114cf9190612b68565b9250508190555060003373ffffffffffffffffffffffffffffffffffffffff16826040516114fc90612606565b60006040518083038185875af1925050503d8060008114611539576040519150601f19603f3d011682016040523d82523d6000602084013e61153e565b606091505b5050905080611582576040517f08c379a000000000000000000000000000000000000000000000000000000000815260040161157990612eb4565b60405180910390fd5b7f30456984284d2307adefd5d0fd3ea55de47e673f2c2517859a7f808b3f3daf1e826002600086815260200190815260200160002060020154856040516115cb93929190612ed4565b60405180910390a1506115dc612089565b5050565b6115e861203a565b3373ffffffffffffffffffffffffffffffffffffffff166002600083815260200190815260200160002060010160009054906101000a900473ffffffffffffffffffffffffffffffffffffffff1673ffffffffffffffffffffffffffffffffffffffff161461168c576040517f08c379a000000000000000000000000000000000000000000000000000000000815260040161168390612f7d565b60405180910390fd5b60008080600090505b600260008581526020019081526020016000206005018054905081101561170a57846002600086815260200190815260200160002060050182815481106116df576116de6128ee565b5b9060005260206000200154036116f757600192508091505b80806117029061273d565b915050611695565b508161174b576040517f08c379a000000000000000000000000000000000000000000000000000000000815260040161174290612b48565b60405180910390fd5b60006002600086815260200190815260200160002060010160009054906101000a900473ffffffffffffffffffffffffffffffffffffffff169050600060026000878152602001908152602001600020600301905060006002600088815260200190815260200160002060040154905060006002600089815260200190815260200160002060020154905060006002600089815260200190815260200160002060030190506000600260008a81526020019081526020016000206004015490506000600260008b815260200190815260200160002060020154905060005b858160ff161161199957600073ffffffffffffffffffffffffffffffffffffffff168760008360ff16815260200190815260200160002060000160009054906101000a900473ffffffffffffffffffffffffffffffffffffffff1673ffffffffffffffffffffffffffffffffffffffff16141580156118c1575060008760008360ff1681526020019081526020016000206001015414155b15611986578660008260ff16815260200190815260200160002060000160009054906101000a900473ffffffffffffffffffffffffffffffffffffffff1673ffffffffffffffffffffffffffffffffffffffff166342842e0e30338a60008660ff168152602001908152602001600020600101546040518463ffffffff1660e01b815260040161195393929190612539565b600060405180830381600087803b15801561196d57600080fd5b505af1158015611981573d6000803e3d6000fd5b505050505b8080611991906125ac565b915050611829565b506000841115611a515760003373ffffffffffffffffffffffffffffffffffffffff16856040516119c990612606565b60006040518083038185875af1925050503d8060008114611a06576040519150601f19603f3d011682016040523d82523d6000602084013e611a0b565b606091505b5050905080611a4f576040517f08c379a0000000000000000000000000000000000000000000000000000000008152600401611a4690612667565b60405180910390fd5b505b60005b828160ff1611611bc457600073ffffffffffffffffffffffffffffffffffffffff168460008360ff16815260200190815260200160002060000160009054906101000a900473ffffffffffffffffffffffffffffffffffffffff1673ffffffffffffffffffffffffffffffffffffffff1614158015611aec575060008460008360ff1681526020019081526020016000206001015414155b15611bb1578360008260ff16815260200190815260200160002060000160009054906101000a900473ffffffffffffffffffffffffffffffffffffffff1673ffffffffffffffffffffffffffffffffffffffff166342842e0e308a8760008660ff168152602001908152602001600020600101546040518463ffffffff1660e01b8152600401611b7e93929190612ffc565b600060405180830381600087803b158015611b9857600080fd5b505af1158015611bac573d6000803e3d6000fd5b505050505b8080611bbc906125ac565b915050611a54565b506000811115611c7c5760008773ffffffffffffffffffffffffffffffffffffffff1682604051611bf490612606565b60006040518083038185875af1925050503d8060008114611c31576040519150601f19603f3d011682016040523d82523d6000602084013e611c36565b606091505b5050905080611c7a576040517f08c379a0000000000000000000000000000000000000000000000000000000008152600401611c7190612667565b60405180910390fd5b505b611c868b8b610ca9565b600260008c81526020019081526020016000206000808201600090556001820160006101000a81549073ffffffffffffffffffffffffffffffffffffffff02191690556001820160146101000a81549060ff02191690556001820160156101000a81549060ff021916905560028201600090556004820160009055600582016000611d1191906120b7565b5050600260008b81526020019081526020016000206000808201600090556001820160006101000a81549073ffffffffffffffffffffffffffffffffffffffff02191690556001820160146101000a81549060ff02191690556001820160156101000a81549060ff021916905560028201600090556004820160009055600582016000611d9e91906120b7565b50507facd9ab82a55a187d43a5be631b5387d38d4edc3d06779d45490f3a28a812375d8b8b83878987604051611dd996959493929190613033565b60405180910390a1505050505050505050611df2612089565b5050565b611dfe61203a565b3373ffffffffffffffffffffffffffffffffffffffff166002600083815260200190815260200160002060010160009054906101000a900473ffffffffffffffffffffffffffffffffffffffff1673ffffffffffffffffffffffffffffffffffffffff1614611ea2576040517f08c379a0000000000000000000000000000000000000000000000000000000008152600401611e99906130e0565b60405180910390fd5b34600260008381526020019081526020016000206002016000828254611ec89190613100565b925050819055507fd226bb2df5b34fe4a15f2c183152a4a6c0046a0fc662007c0c90f7b2944a75dd34600260008481526020019081526020016000206002015483604051611f1893929190612ed4565b60405180910390a1611f28612089565b50565b3373ffffffffffffffffffffffffffffffffffffffff166002600083815260200190815260200160002060010160009054906101000a900473ffffffffffffffffffffffffffffffffffffffff1673ffffffffffffffffffffffffffffffffffffffff1614611fcf576040517f08c379a0000000000000000000000000000000000000000000000000000000008152600401611fc6906131a6565b60405180910390fd5b60016002600083815260200190815260200160002060010160146101000a81548160ff0219169083151502179055507fbc14744d3f03b4b796128c976eb90a92006d56fc1614c48c0d2ba9e2825c58c6813360405161202f9291906126a8565b60405180910390a150565b60026000540361207f576040517f08c379a000000000000000000000000000000000000000000000000000000000815260040161207690613212565b60405180910390fd5b6002600081905550565b6001600081905550565b6001816000016000828254019250508190555050565b600081600001549050919050565b50805460008255906000526020600020908101906120d59190612155565b50565b6040518060400160405280600073ffffffffffffffffffffffffffffffffffffffff168152602001600081525090565b828054828255906000526020600020908101928215612144579160200282015b82811115612143578251825591602001919060010190612128565b5b5090506121519190612155565b5090565b5b8082111561216e576000816000905550600101612156565b5090565b600080fd5b600080fd5b6000819050919050565b61218f8161217c565b811461219a57600080fd5b50565b6000813590506121ac81612186565b92915050565b6000602082840312156121c8576121c7612172565b5b60006121d68482850161219d565b91505092915050565b600073ffffffffffffffffffffffffffffffffffffffff82169050919050565b600061220a826121df565b9050919050565b61221a816121ff565b811461222557600080fd5b50565b60008135905061223781612211565b92915050565b60008060006060848603121561225657612255612172565b5b600061226486828701612228565b93505060206122758682870161219d565b92505060406122868682870161219d565b9150509250925092565b600080fd5b600080fd5b600080fd5b60008083601f8401126122b5576122b4612290565b5b8235905067ffffffffffffffff8111156122d2576122d1612295565b5b6020830191508360018202830111156122ee576122ed61229a565b5b9250929050565b60008060008060006080868803121561231157612310612172565b5b600061231f88828901612228565b955050602061233088828901612228565b94505060406123418882890161219d565b935050606086013567ffffffffffffffff81111561236257612361612177565b5b61236e8882890161229f565b92509250509295509295909350565b60007fffffffff0000000000000000000000000000000000000000000000000000000082169050919050565b6123b28161237d565b82525050565b60006020820190506123cd60008301846123a9565b92915050565b600080604083850312156123ea576123e9612172565b5b60006123f88582860161219d565b92505060206124098582860161219d565b9150509250929050565b60008115159050919050565b61242881612413565b811461243357600080fd5b50565b6000813590506124458161241f565b92915050565b60006020828403121561246157612460612172565b5b600061246f84828501612436565b91505092915050565b600082825260208201905092915050565b7f4f6e6c79206261736b6574206f776e65722063616e2072656d6f76652061206260008201527f61736b65742066726f6d207468656972206f66666572696e6700000000000000602082015250565b60006124e5603983612478565b91506124f082612489565b604082019050919050565b60006020820190508181036000830152612514816124d8565b9050919050565b612524816121ff565b82525050565b6125338161217c565b82525050565b600060608201905061254e600083018661251b565b61255b602083018561251b565b612568604083018461252a565b949350505050565b7f4e487b7100000000000000000000000000000000000000000000000000000000600052601160045260246000fd5b600060ff82169050919050565b60006125b78261259f565b915060ff82036125ca576125c9612570565b5b600182019050919050565b600081905092915050565b50565b60006125f06000836125d5565b91506125fb826125e0565b600082019050919050565b6000612611826125e3565b9150819050919050565b7f5472616e7366657220746f2073656c6c6572206661696c65642e000000000000600082015250565b6000612651601a83612478565b915061265c8261261b565b602082019050919050565b6000602082019050818103600083015261268081612644565b9050919050565b6000612692826121df565b9050919050565b6126a281612687565b82525050565b60006040820190506126bd600083018561252a565b6126ca6020830184612699565b9392505050565b7f4f6e6c79206261736b6574206f776e65722063616e20616464204e4654730000600082015250565b6000612707601e83612478565b9150612712826126d1565b602082019050919050565b60006020820190508181036000830152612736816126fa565b9050919050565b60006127488261217c565b91507fffffffffffffffffffffffffffffffffffffffffffffffffffffffffffffffff820361277a57612779612570565b5b600182019050919050565b7f54686973204e46542068617320616c7265616479206265656e2061646465642060008201527f746f2074686973206261736b65742e0000000000000000000000000000000000602082015250565b60006127e1602f83612478565b91506127ec82612785565b604082019050919050565b60006020820190508181036000830152612810816127d4565b9050919050565b600060808201905061282c600083018761252a565b612839602083018661251b565b612846604083018561252a565b612853606083018461251b565b95945050505050565b7f4f6e6c79206261736b6574206f776e65722063616e20736574206f666665722060008201527f6f6e20616e6f74686572206261736b6574000000000000000000000000000000602082015250565b60006128b8603183612478565b91506128c38261285c565b604082019050919050565b600060208201905081810360008301526128e7816128ab565b9050919050565b7f4e487b7100000000000000000000000000000000000000000000000000000000600052603260045260246000fd5b7f54686973206261736b657420697320616c7265616479206265696e67206f666660008201527f6572656400000000000000000000000000000000000000000000000000000000602082015250565b6000612979602483612478565b91506129848261291d565b604082019050919050565b600060208201905081810360008301526129a88161296c565b9050919050565b60006040820190506129c4600083018561252a565b6129d1602083018461252a565b9392505050565b7f4f6e6c79206261736b6574206f776e65722063616e20736574206261736b657460008201527f20696e6163746976650000000000000000000000000000000000000000000000602082015250565b6000612a34602983612478565b9150612a3f826129d8565b604082019050919050565b60006020820190508181036000830152612a6381612a27565b9050919050565b7f4f6e6c79206261736b6574206f776e65722063616e2072656d6f766520616e2060008201527f6f66666572206f6e20616e6f74686572206261736b6574000000000000000000602082015250565b6000612ac6603783612478565b9150612ad182612a6a565b604082019050919050565b60006020820190508181036000830152612af581612ab9565b9050919050565b7f5468657265206973206e6f206f66666572206f6e2074686973206261736b6574600082015250565b6000612b32602083612478565b9150612b3d82612afc565b602082019050919050565b60006020820190508181036000830152612b6181612b25565b9050919050565b6000612b738261217c565b9150612b7e8361217c565b9250828203905081811115612b9657612b95612570565b5b92915050565b7f4e487b7100000000000000000000000000000000000000000000000000000000600052603160045260246000fd5b7f4e487b7100000000000000000000000000000000000000000000000000000000600052604160045260246000fd5b7f4f6e6c79206261736b6574206f776e65722063616e2072656d6f7665204e465460008201527f7300000000000000000000000000000000000000000000000000000000000000602082015250565b6000612c56602183612478565b9150612c6182612bfa565b604082019050919050565b60006020820190508181036000830152612c8581612c49565b9050919050565b7f54686973204e4654206973206e6f742070617274206f6620746869732062617360008201527f6b65742e00000000000000000000000000000000000000000000000000000000602082015250565b6000612ce8602483612478565b9150612cf382612c8c565b604082019050919050565b60006020820190508181036000830152612d1781612cdb565b9050919050565b7f4f6e6c79206261736b6574206f776e65722063616e2072656d6f76652074667560008201527f656c20746675656c000000000000000000000000000000000000000000000000602082015250565b6000612d7a602883612478565b9150612d8582612d1e565b604082019050919050565b60006020820190508181036000830152612da981612d6d565b9050919050565b7f546675656c20746f2072656d6f76652063616e6e6f74206265206d6f7265207460008201527f68616e207768617420697320616c7265616479206265696e67206f666665726560208201527f6400000000000000000000000000000000000000000000000000000000000000604082015250565b6000612e32604183612478565b9150612e3d82612db0565b606082019050919050565b60006020820190508181036000830152612e6181612e25565b9050919050565b7f5472616e736665722066726f6d206261736b6574206661696c65642e00000000600082015250565b6000612e9e601c83612478565b9150612ea982612e68565b602082019050919050565b60006020820190508181036000830152612ecd81612e91565b9050919050565b6000606082019050612ee9600083018661252a565b612ef6602083018561252a565b612f03604083018461252a565b949350505050565b7f4f6e6c79206261736b6574206f776e65722063616e206163636570742074686560008201527f206f666665720000000000000000000000000000000000000000000000000000602082015250565b6000612f67602683612478565b9150612f7282612f0b565b604082019050919050565b60006020820190508181036000830152612f9681612f5a565b9050919050565b6000819050919050565b6000612fc2612fbd612fb8846121df565b612f9d565b6121df565b9050919050565b6000612fd482612fa7565b9050919050565b6000612fe682612fc9565b9050919050565b612ff681612fdb565b82525050565b6000606082019050613011600083018661251b565b61301e6020830185612fed565b61302b604083018461252a565b949350505050565b600060c082019050613048600083018961252a565b613055602083018861252a565b613062604083018761252a565b61306f606083018661252a565b61307c608083018561252a565b61308960a083018461252a565b979650505050505050565b7f4f6e6c79206261736b6574206f776e65722063616e2061646420746675656c00600082015250565b60006130ca601f83612478565b91506130d582613094565b602082019050919050565b600060208201905081810360008301526130f9816130bd565b9050919050565b600061310b8261217c565b91506131168361217c565b925082820190508082111561312e5761312d612570565b5b92915050565b7f4f6e6c79206261736b6574206f776e65722063616e20736574206261736b657460008201527f2061637469766500000000000000000000000000000000000000000000000000602082015250565b6000613190602783612478565b915061319b82613134565b604082019050919050565b600060208201905081810360008301526131bf81613183565b9050919050565b7f5265656e7472616e637947756172643a207265656e7472616e742063616c6c00600082015250565b60006131fc601f83612478565b9150613207826131c6565b602082019050919050565b6000602082019050818103600083015261322b816131ef565b905091905056fea2646970667358221220eb61f2ef233ba7c80919db46673cf8071486f2595157a272e3930d74f67faff664736f6c63430008130033",
  "linkReferences": {},
  "deployedLinkReferences": {}
}